{
  "contractName": "Color",
  "abi": [
    {
      "inputs": [],
      "stateMutability": "nonpayable",
      "type": "constructor"
    },
    {
      "anonymous": false,
      "inputs": [
        {
          "indexed": true,
          "internalType": "address",
          "name": "owner",
          "type": "address"
        },
        {
          "indexed": true,
          "internalType": "address",
          "name": "approved",
          "type": "address"
        },
        {
          "indexed": true,
          "internalType": "uint256",
          "name": "tokenId",
          "type": "uint256"
        }
      ],
      "name": "Approval",
      "type": "event"
    },
    {
      "anonymous": false,
      "inputs": [
        {
          "indexed": true,
          "internalType": "address",
          "name": "owner",
          "type": "address"
        },
        {
          "indexed": true,
          "internalType": "address",
          "name": "operator",
          "type": "address"
        },
        {
          "indexed": false,
          "internalType": "bool",
          "name": "approved",
          "type": "bool"
        }
      ],
      "name": "ApprovalForAll",
      "type": "event"
    },
    {
      "anonymous": false,
      "inputs": [
        {
          "indexed": true,
          "internalType": "address",
          "name": "from",
          "type": "address"
        },
        {
          "indexed": true,
          "internalType": "address",
          "name": "to",
          "type": "address"
        },
        {
          "indexed": true,
          "internalType": "uint256",
          "name": "tokenId",
          "type": "uint256"
        }
      ],
      "name": "Transfer",
      "type": "event"
    },
    {
      "inputs": [],
      "name": "admin",
      "outputs": [
        {
          "internalType": "address payable",
          "name": "",
          "type": "address"
        }
      ],
      "stateMutability": "view",
      "type": "function",
      "constant": true
    },
    {
      "inputs": [
        {
          "internalType": "address",
          "name": "to",
          "type": "address"
        },
        {
          "internalType": "uint256",
          "name": "tokenId",
          "type": "uint256"
        }
      ],
      "name": "approve",
      "outputs": [],
      "stateMutability": "nonpayable",
      "type": "function"
    },
    {
      "inputs": [
        {
          "internalType": "address",
          "name": "owner",
          "type": "address"
        }
      ],
      "name": "balanceOf",
      "outputs": [
        {
          "internalType": "uint256",
          "name": "",
          "type": "uint256"
        }
      ],
      "stateMutability": "view",
      "type": "function",
      "constant": true
    },
    {
      "inputs": [
        {
          "internalType": "uint256",
          "name": "",
          "type": "uint256"
        }
      ],
      "name": "colors",
      "outputs": [
        {
          "internalType": "string",
          "name": "",
          "type": "string"
        }
      ],
      "stateMutability": "view",
      "type": "function",
      "constant": true
    },
    {
      "inputs": [
        {
          "internalType": "uint256",
          "name": "tokenId",
          "type": "uint256"
        }
      ],
      "name": "getApproved",
      "outputs": [
        {
          "internalType": "address",
          "name": "",
          "type": "address"
        }
      ],
      "stateMutability": "view",
      "type": "function",
      "constant": true
    },
    {
      "inputs": [
        {
          "internalType": "address",
          "name": "owner",
          "type": "address"
        },
        {
          "internalType": "address",
          "name": "operator",
          "type": "address"
        }
      ],
      "name": "isApprovedForAll",
      "outputs": [
        {
          "internalType": "bool",
          "name": "",
          "type": "bool"
        }
      ],
      "stateMutability": "view",
      "type": "function",
      "constant": true
    },
    {
      "inputs": [
        {
          "internalType": "address",
          "name": "",
          "type": "address"
        },
        {
          "internalType": "uint256",
          "name": "",
          "type": "uint256"
        }
      ],
      "name": "listings",
      "outputs": [
        {
          "internalType": "uint256",
          "name": "price",
          "type": "uint256"
        },
        {
          "internalType": "address",
          "name": "seller",
          "type": "address"
        }
      ],
      "stateMutability": "view",
      "type": "function",
      "constant": true
    },
    {
      "inputs": [],
      "name": "name",
      "outputs": [
        {
          "internalType": "string",
          "name": "",
          "type": "string"
        }
      ],
      "stateMutability": "view",
      "type": "function",
      "constant": true
    },
    {
      "inputs": [],
      "name": "nftCONTRACT",
      "outputs": [
        {
          "internalType": "address",
          "name": "",
          "type": "address"
        }
      ],
      "stateMutability": "view",
      "type": "function",
      "constant": true
    },
    {
      "inputs": [
        {
          "internalType": "uint256",
          "name": "tokenId",
          "type": "uint256"
        }
      ],
      "name": "ownerOf",
      "outputs": [
        {
          "internalType": "address",
          "name": "",
          "type": "address"
        }
      ],
      "stateMutability": "view",
      "type": "function",
      "constant": true
    },
    {
      "inputs": [
        {
          "internalType": "uint256",
          "name": "",
          "type": "uint256"
        },
        {
          "internalType": "uint256",
          "name": "",
          "type": "uint256"
        }
      ],
      "name": "owners",
      "outputs": [
        {
          "internalType": "address",
          "name": "",
          "type": "address"
        }
      ],
      "stateMutability": "view",
      "type": "function",
      "constant": true
    },
    {
      "inputs": [
        {
          "internalType": "address",
          "name": "from",
          "type": "address"
        },
        {
          "internalType": "address",
          "name": "to",
          "type": "address"
        },
        {
          "internalType": "uint256",
          "name": "tokenId",
          "type": "uint256"
        }
      ],
      "name": "safeTransferFrom",
      "outputs": [],
      "stateMutability": "nonpayable",
      "type": "function"
    },
    {
      "inputs": [
        {
          "internalType": "address",
          "name": "from",
          "type": "address"
        },
        {
          "internalType": "address",
          "name": "to",
          "type": "address"
        },
        {
          "internalType": "uint256",
          "name": "tokenId",
          "type": "uint256"
        },
        {
          "internalType": "bytes",
          "name": "_data",
          "type": "bytes"
        }
      ],
      "name": "safeTransferFrom",
      "outputs": [],
      "stateMutability": "nonpayable",
      "type": "function"
    },
    {
      "inputs": [
        {
          "internalType": "address",
          "name": "operator",
          "type": "address"
        },
        {
          "internalType": "bool",
          "name": "approved",
          "type": "bool"
        }
      ],
      "name": "setApprovalForAll",
      "outputs": [],
      "stateMutability": "nonpayable",
      "type": "function"
    },
    {
      "inputs": [
        {
          "internalType": "bytes4",
          "name": "interfaceId",
          "type": "bytes4"
        }
      ],
      "name": "supportsInterface",
      "outputs": [
        {
          "internalType": "bool",
          "name": "",
          "type": "bool"
        }
      ],
      "stateMutability": "view",
      "type": "function",
      "constant": true
    },
    {
      "inputs": [],
      "name": "symbol",
      "outputs": [
        {
          "internalType": "string",
          "name": "",
          "type": "string"
        }
      ],
      "stateMutability": "view",
      "type": "function",
      "constant": true
    },
    {
      "inputs": [
        {
          "internalType": "uint256",
          "name": "tokenId",
          "type": "uint256"
        }
      ],
      "name": "tokenURI",
      "outputs": [
        {
          "internalType": "string",
          "name": "",
          "type": "string"
        }
      ],
      "stateMutability": "view",
      "type": "function",
      "constant": true
    },
    {
      "inputs": [
        {
          "internalType": "address",
          "name": "from",
          "type": "address"
        },
        {
          "internalType": "address",
          "name": "to",
          "type": "address"
        },
        {
          "internalType": "uint256",
          "name": "tokenId",
          "type": "uint256"
        }
      ],
      "name": "transferFrom",
      "outputs": [],
      "stateMutability": "nonpayable",
      "type": "function"
    },
    {
      "inputs": [],
      "name": "verAdmin",
      "outputs": [
        {
          "internalType": "address payable",
          "name": "",
          "type": "address"
        }
      ],
      "stateMutability": "view",
      "type": "function",
      "constant": true
    },
    {
      "inputs": [
        {
          "internalType": "uint256",
          "name": "tokenId",
          "type": "uint256"
        }
      ],
      "name": "purchase",
      "outputs": [],
      "stateMutability": "payable",
      "type": "function",
      "payable": true
    },
    {
      "inputs": [
        {
          "internalType": "uint256",
          "name": "_tokenId",
          "type": "uint256"
        }
      ],
      "name": "viewPrice",
      "outputs": [
        {
          "internalType": "uint256",
          "name": "",
          "type": "uint256"
        }
      ],
      "stateMutability": "view",
      "type": "function",
      "constant": true
    },
    {
      "inputs": [
        {
          "internalType": "string",
          "name": "_color",
          "type": "string"
        },
        {
          "internalType": "string",
          "name": "tokenURI",
          "type": "string"
        },
        {
          "internalType": "uint256",
          "name": "_price",
          "type": "uint256"
        }
      ],
      "name": "mint",
      "outputs": [
        {
          "internalType": "uint256",
          "name": "",
          "type": "uint256"
        }
      ],
      "stateMutability": "nonpayable",
      "type": "function"
    },
    {
      "inputs": [],
      "name": "getNFTSLength",
      "outputs": [
        {
          "internalType": "uint256",
          "name": "",
          "type": "uint256"
        }
      ],
      "stateMutability": "view",
      "type": "function",
      "constant": true
    }
  ],
  "bytecode": "0x60806040523480156200001157600080fd5b506040518060400160405280600581526020017f526f626f740000000000000000000000000000000000000000000000000000008152506040518060400160405280600581526020017f524f424f540000000000000000000000000000000000000000000000000000008152508160009080519060200190620000969291906200013a565b508060019080519060200190620000af9291906200013a565b50505033600860006101000a81548173ffffffffffffffffffffffffffffffffffffffff021916908373ffffffffffffffffffffffffffffffffffffffff16021790555030600960006101000a81548173ffffffffffffffffffffffffffffffffffffffff021916908373ffffffffffffffffffffffffffffffffffffffff1602179055506200024f565b828054620001489062000219565b90600052602060002090601f0160209004810192826200016c5760008555620001b8565b82601f106200018757805160ff1916838001178555620001b8565b82800160010185558215620001b8579182015b82811115620001b75782518255916020019190600101906200019a565b5b509050620001c79190620001cb565b5090565b5b80821115620001e6576000816000905550600101620001cc565b5090565b7f4e487b7100000000000000000000000000000000000000000000000000000000600052602260045260246000fd5b600060028204905060018216806200023257607f821691505b60208210811415620002495762000248620001ea565b5b50919050565b6137da806200025f6000396000f3fe60806040526004361061013f5760003560e01c806370a08231116100b6578063c87b56dd1161006f578063c87b56dd14610494578063d41d9a27146104d1578063e865579f1461050e578063e985e9c51461054b578063efef39a114610588578063f851a440146105a45761013f565b806370a08231146103725780638a81230d146103af57806395d89b41146103da578063a22cb46514610405578063b88d4fde1461042e578063bd11f69d146104575761013f565b8063191bac1f11610108578063191bac1f1461025057806323b872dd1461027b57806332d455bf146102a457806333764f53146102cf57806342842e0e1461030c5780636352211e146103355761013f565b806207df301461014457806301ffc9a71461018257806306fdde03146101bf578063081812fc146101ea578063095ea7b314610227575b600080fd5b34801561015057600080fd5b5061016b60048036038101906101669190612357565b6105cf565b6040516101799291906123b5565b60405180910390f35b34801561018e57600080fd5b506101a960048036038101906101a49190612436565b610620565b6040516101b6919061247e565b60405180910390f35b3480156101cb57600080fd5b506101d4610702565b6040516101e19190612532565b60405180910390f35b3480156101f657600080fd5b50610211600480360381019061020c9190612554565b610794565b60405161021e9190612581565b60405180910390f35b34801561023357600080fd5b5061024e60048036038101906102499190612357565b610819565b005b34801561025c57600080fd5b50610265610931565b6040516102729190612581565b60405180910390f35b34801561028757600080fd5b506102a2600480360381019061029d919061259c565b610957565b005b3480156102b057600080fd5b506102b96109b7565b6040516102c69190612610565b60405180910390f35b3480156102db57600080fd5b506102f660048036038101906102f1919061262b565b6109e1565b6040516103039190612581565b60405180910390f35b34801561031857600080fd5b50610333600480360381019061032e919061259c565b610a2f565b005b34801561034157600080fd5b5061035c60048036038101906103579190612554565b610a4f565b6040516103699190612581565b60405180910390f35b34801561037e57600080fd5b506103996004803603810190610394919061266b565b610b01565b6040516103a69190612698565b60405180910390f35b3480156103bb57600080fd5b506103c4610bb9565b6040516103d19190612698565b60405180910390f35b3480156103e657600080fd5b506103ef610bc6565b6040516103fc9190612532565b60405180910390f35b34801561041157600080fd5b5061042c600480360381019061042791906126df565b610c58565b005b34801561043a57600080fd5b5061045560048036038101906104509190612854565b610c6e565b005b34801561046357600080fd5b5061047e60048036038101906104799190612554565b610cd0565b60405161048b9190612532565b60405180910390f35b3480156104a057600080fd5b506104bb60048036038101906104b69190612554565b610d7c565b6040516104c89190612532565b60405180910390f35b3480156104dd57600080fd5b506104f860048036038101906104f39190612978565b610ece565b6040516105059190612698565b60405180910390f35b34801561051a57600080fd5b5061053560048036038101906105309190612554565b6111a2565b6040516105429190612698565b60405180910390f35b34801561055757600080fd5b50610572600480360381019061056d9190612a03565b611207565b60405161057f919061247e565b60405180910390f35b6105a2600480360381019061059d9190612554565b61129b565b005b3480156105b057600080fd5b506105b96114fb565b6040516105c69190612610565b60405180910390f35b600e602052816000526040600020602052806000526040600020600091509150508060000154908060010160009054906101000a900473ffffffffffffffffffffffffffffffffffffffff16905082565b60007f80ac58cd000000000000000000000000000000000000000000000000000000007bffffffffffffffffffffffffffffffffffffffffffffffffffffffff1916827bffffffffffffffffffffffffffffffffffffffffffffffffffffffff191614806106eb57507f5b5e139f000000000000000000000000000000000000000000000000000000007bffffffffffffffffffffffffffffffffffffffffffffffffffffffff1916827bffffffffffffffffffffffffffffffffffffffffffffffffffffffff1916145b806106fb57506106fa82611521565b5b9050919050565b60606000805461071190612a72565b80601f016020809104026020016040519081016040528092919081815260200182805461073d90612a72565b801561078a5780601f1061075f5761010080835404028352916020019161078a565b820191906000526020600020905b81548152906001019060200180831161076d57829003601f168201915b5050505050905090565b600061079f8261158b565b6107de576040517f08c379a00000000000000000000000000000000000000000000000000000000081526004016107d590612b16565b60405180910390fd5b6004600083815260200190815260200160002060009054906101000a900473ffffffffffffffffffffffffffffffffffffffff169050919050565b600061082482610a4f565b90508073ffffffffffffffffffffffffffffffffffffffff168373ffffffffffffffffffffffffffffffffffffffff161415610895576040517f08c379a000000000000000000000000000000000000000000000000000000000815260040161088c90612ba8565b60405180910390fd5b8073ffffffffffffffffffffffffffffffffffffffff166108b46115f7565b73ffffffffffffffffffffffffffffffffffffffff1614806108e357506108e2816108dd6115f7565b611207565b5b610922576040517f08c379a000000000000000000000000000000000000000000000000000000000815260040161091990612c3a565b60405180910390fd5b61092c83836115ff565b505050565b600960009054906101000a900473ffffffffffffffffffffffffffffffffffffffff1681565b6109686109626115f7565b826116b8565b6109a7576040517f08c379a000000000000000000000000000000000000000000000000000000000815260040161099e90612ccc565b60405180910390fd5b6109b2838383611796565b505050565b6000600860009054906101000a900473ffffffffffffffffffffffffffffffffffffffff16905090565b600b82815481106109f157600080fd5b906000526020600020016020528060005260406000206000915091509054906101000a900473ffffffffffffffffffffffffffffffffffffffff1681565b610a4a83838360405180602001604052806000815250610c6e565b505050565b6000806002600084815260200190815260200160002060009054906101000a900473ffffffffffffffffffffffffffffffffffffffff169050600073ffffffffffffffffffffffffffffffffffffffff168173ffffffffffffffffffffffffffffffffffffffff161415610af8576040517f08c379a0000000000000000000000000000000000000000000000000000000008152600401610aef90612d5e565b60405180910390fd5b80915050919050565b60008073ffffffffffffffffffffffffffffffffffffffff168273ffffffffffffffffffffffffffffffffffffffff161415610b72576040517f08c379a0000000000000000000000000000000000000000000000000000000008152600401610b6990612df0565b60405180910390fd5b600360008373ffffffffffffffffffffffffffffffffffffffff1673ffffffffffffffffffffffffffffffffffffffff168152602001908152602001600020549050919050565b6000600a80549050905090565b606060018054610bd590612a72565b80601f0160208091040260200160405190810160405280929190818152602001828054610c0190612a72565b8015610c4e5780601f10610c2357610100808354040283529160200191610c4e565b820191906000526020600020905b815481529060010190602001808311610c3157829003601f168201915b5050505050905090565b610c6a610c636115f7565b83836119fd565b5050565b610c7f610c796115f7565b836116b8565b610cbe576040517f08c379a0000000000000000000000000000000000000000000000000000000008152600401610cb590612ccc565b60405180910390fd5b610cca84848484611b6a565b50505050565b600a8181548110610ce057600080fd5b906000526020600020016000915090508054610cfb90612a72565b80601f0160208091040260200160405190810160405280929190818152602001828054610d2790612a72565b8015610d745780601f10610d4957610100808354040283529160200191610d74565b820191906000526020600020905b815481529060010190602001808311610d5757829003601f168201915b505050505081565b6060610d878261158b565b610dc6576040517f08c379a0000000000000000000000000000000000000000000000000000000008152600401610dbd90612e82565b60405180910390fd5b6000600660008481526020019081526020016000208054610de690612a72565b80601f0160208091040260200160405190810160405280929190818152602001828054610e1290612a72565b8015610e5f5780601f10610e3457610100808354040283529160200191610e5f565b820191906000526020600020905b815481529060010190602001808311610e4257829003601f168201915b505050505090506000610e70611bc6565b9050600081511415610e86578192505050610ec9565b600082511115610ebb578082604051602001610ea3929190612ede565b60405160208183030381529060405292505050610ec9565b610ec484611bdd565b925050505b919050565b6000600860009054906101000a900473ffffffffffffffffffffffffffffffffffffffff1673ffffffffffffffffffffffffffffffffffffffff163373ffffffffffffffffffffffffffffffffffffffff1614610f60576040517f08c379a0000000000000000000000000000000000000000000000000000000008152600401610f5790612f4e565b60405180910390fd5b600c84604051610f709190612f6e565b908152602001604051809103902060009054906101000a900460ff1615610f9657600080fd5b610fa06007611c84565b6000610fac6007611c9a565b9050600a85908060018154018082558091505060019003906000526020600020016000909190919091509080519060200190610fe992919061220c565b50611016600860009054906101000a900473ffffffffffffffffffffffffffffffffffffffff1682611ca8565b6110208185611e82565b6001600c866040516110329190612f6e565b908152602001604051809103902060006101000a81548160ff0219169083151502179055506040518060400160405280848152602001600860009054906101000a900473ffffffffffffffffffffffffffffffffffffffff1673ffffffffffffffffffffffffffffffffffffffff16815250600e6000600860009054906101000a900473ffffffffffffffffffffffffffffffffffffffff1673ffffffffffffffffffffffffffffffffffffffff1673ffffffffffffffffffffffffffffffffffffffff16815260200190815260200160002060008381526020019081526020016000206000820151816000015560208201518160010160006101000a81548173ffffffffffffffffffffffffffffffffffffffff021916908373ffffffffffffffffffffffffffffffffffffffff160217905550905050611197600960009054906101000a900473ffffffffffffffffffffffffffffffffffffffff166001610c58565b809150509392505050565b6000600e60006111b184610a4f565b73ffffffffffffffffffffffffffffffffffffffff1673ffffffffffffffffffffffffffffffffffffffff1681526020019081526020016000206000838152602001908152602001600020600001549050919050565b6000600560008473ffffffffffffffffffffffffffffffffffffffff1673ffffffffffffffffffffffffffffffffffffffff16815260200190815260200160002060008373ffffffffffffffffffffffffffffffffffffffff1673ffffffffffffffffffffffffffffffffffffffff16815260200190815260200160002060009054906101000a900460ff16905092915050565b6000600e6000600860009054906101000a900473ffffffffffffffffffffffffffffffffffffffff1673ffffffffffffffffffffffffffffffffffffffff1673ffffffffffffffffffffffffffffffffffffffff1681526020019081526020016000206000838152602001908152602001600020604051806040016040529081600082015481526020016001820160009054906101000a900473ffffffffffffffffffffffffffffffffffffffff1673ffffffffffffffffffffffffffffffffffffffff1673ffffffffffffffffffffffffffffffffffffffff16815250509050670de0b6b3a764000081600001516113949190612fb4565b3410156113a057600080fd5b34600d6000836020015173ffffffffffffffffffffffffffffffffffffffff1673ffffffffffffffffffffffffffffffffffffffff16815260200190815260200160002060008282546113f3919061300e565b92505081905550806020015173ffffffffffffffffffffffffffffffffffffffff166108fc670de0b6b3a764000083600001516114309190612fb4565b9081150290604051600060405180830381858888f1935050505015801561145b573d6000803e3d6000fd5b506000600960009054906101000a900473ffffffffffffffffffffffffffffffffffffffff1690508073ffffffffffffffffffffffffffffffffffffffff1663b88d4fde836020015133866040518463ffffffff1660e01b81526004016114c49392919061309b565b600060405180830381600087803b1580156114de57600080fd5b505af11580156114f2573d6000803e3d6000fd5b50505050505050565b600860009054906101000a900473ffffffffffffffffffffffffffffffffffffffff1681565b60007f01ffc9a7000000000000000000000000000000000000000000000000000000007bffffffffffffffffffffffffffffffffffffffffffffffffffffffff1916827bffffffffffffffffffffffffffffffffffffffffffffffffffffffff1916149050919050565b60008073ffffffffffffffffffffffffffffffffffffffff166002600084815260200190815260200160002060009054906101000a900473ffffffffffffffffffffffffffffffffffffffff1673ffffffffffffffffffffffffffffffffffffffff1614159050919050565b600033905090565b816004600083815260200190815260200160002060006101000a81548173ffffffffffffffffffffffffffffffffffffffff021916908373ffffffffffffffffffffffffffffffffffffffff160217905550808273ffffffffffffffffffffffffffffffffffffffff1661167283610a4f565b73ffffffffffffffffffffffffffffffffffffffff167f8c5be1e5ebec7d5bd14f71427d1e84f3dd0314c0f7b2291e5b200ac8c7c3b92560405160405180910390a45050565b60006116c38261158b565b611702576040517f08c379a00000000000000000000000000000000000000000000000000000000081526004016116f990613157565b60405180910390fd5b600061170d83610a4f565b90508073ffffffffffffffffffffffffffffffffffffffff168473ffffffffffffffffffffffffffffffffffffffff16148061177c57508373ffffffffffffffffffffffffffffffffffffffff1661176484610794565b73ffffffffffffffffffffffffffffffffffffffff16145b8061178d575061178c8185611207565b5b91505092915050565b8273ffffffffffffffffffffffffffffffffffffffff166117b682610a4f565b73ffffffffffffffffffffffffffffffffffffffff161461180c576040517f08c379a0000000000000000000000000000000000000000000000000000000008152600401611803906131e9565b60405180910390fd5b600073ffffffffffffffffffffffffffffffffffffffff168273ffffffffffffffffffffffffffffffffffffffff16141561187c576040517f08c379a00000000000000000000000000000000000000000000000000000000081526004016118739061327b565b60405180910390fd5b611887838383611ef6565b6118926000826115ff565b6001600360008573ffffffffffffffffffffffffffffffffffffffff1673ffffffffffffffffffffffffffffffffffffffff16815260200190815260200160002060008282546118e2919061329b565b925050819055506001600360008473ffffffffffffffffffffffffffffffffffffffff1673ffffffffffffffffffffffffffffffffffffffff1681526020019081526020016000206000828254611939919061300e565b92505081905550816002600083815260200190815260200160002060006101000a81548173ffffffffffffffffffffffffffffffffffffffff021916908373ffffffffffffffffffffffffffffffffffffffff160217905550808273ffffffffffffffffffffffffffffffffffffffff168473ffffffffffffffffffffffffffffffffffffffff167fddf252ad1be2c89b69c2b068fc378daa952ba7f163c4a11628f55a4df523b3ef60405160405180910390a46119f8838383611efb565b505050565b8173ffffffffffffffffffffffffffffffffffffffff168373ffffffffffffffffffffffffffffffffffffffff161415611a6c576040517f08c379a0000000000000000000000000000000000000000000000000000000008152600401611a639061331b565b60405180910390fd5b80600560008573ffffffffffffffffffffffffffffffffffffffff1673ffffffffffffffffffffffffffffffffffffffff16815260200190815260200160002060008473ffffffffffffffffffffffffffffffffffffffff1673ffffffffffffffffffffffffffffffffffffffff16815260200190815260200160002060006101000a81548160ff0219169083151502179055508173ffffffffffffffffffffffffffffffffffffffff168373ffffffffffffffffffffffffffffffffffffffff167f17307eab39ab6107e8899845ad3d59bd9653f200f220920489ca2b5937696c3183604051611b5d919061247e565b60405180910390a3505050565b611b75848484611796565b611b8184848484611f00565b611bc0576040517f08c379a0000000000000000000000000000000000000000000000000000000008152600401611bb7906133ad565b60405180910390fd5b50505050565b606060405180602001604052806000815250905090565b6060611be88261158b565b611c27576040517f08c379a0000000000000000000000000000000000000000000000000000000008152600401611c1e9061343f565b60405180910390fd5b6000611c31611bc6565b90506000815111611c515760405180602001604052806000815250611c7c565b80611c5b84612088565b604051602001611c6c929190612ede565b6040516020818303038152906040525b915050919050565b6001816000016000828254019250508190555050565b600081600001549050919050565b600073ffffffffffffffffffffffffffffffffffffffff168273ffffffffffffffffffffffffffffffffffffffff161415611d18576040517f08c379a0000000000000000000000000000000000000000000000000000000008152600401611d0f906134ab565b60405180910390fd5b611d218161158b565b15611d61576040517f08c379a0000000000000000000000000000000000000000000000000000000008152600401611d5890613517565b60405180910390fd5b611d6d60008383611ef6565b6001600360008473ffffffffffffffffffffffffffffffffffffffff1673ffffffffffffffffffffffffffffffffffffffff1681526020019081526020016000206000828254611dbd919061300e565b92505081905550816002600083815260200190815260200160002060006101000a81548173ffffffffffffffffffffffffffffffffffffffff021916908373ffffffffffffffffffffffffffffffffffffffff160217905550808273ffffffffffffffffffffffffffffffffffffffff16600073ffffffffffffffffffffffffffffffffffffffff167fddf252ad1be2c89b69c2b068fc378daa952ba7f163c4a11628f55a4df523b3ef60405160405180910390a4611e7e60008383611efb565b5050565b611e8b8261158b565b611eca576040517f08c379a0000000000000000000000000000000000000000000000000000000008152600401611ec1906135a9565b60405180910390fd5b80600660008481526020019081526020016000209080519060200190611ef192919061220c565b505050565b505050565b505050565b6000611f218473ffffffffffffffffffffffffffffffffffffffff166121e9565b1561207b578373ffffffffffffffffffffffffffffffffffffffff1663150b7a02611f4a6115f7565b8786866040518563ffffffff1660e01b8152600401611f6c949392919061360d565b6020604051808303816000875af1925050508015611fa857506040513d601f19601f82011682018060405250810190611fa5919061366e565b60015b61202b573d8060008114611fd8576040519150601f19603f3d011682016040523d82523d6000602084013e611fdd565b606091505b50600081511415612023576040517f08c379a000000000000000000000000000000000000000000000000000000000815260040161201a906133ad565b60405180910390fd5b805181602001fd5b63150b7a0260e01b7bffffffffffffffffffffffffffffffffffffffffffffffffffffffff1916817bffffffffffffffffffffffffffffffffffffffffffffffffffffffff191614915050612080565b600190505b949350505050565b606060008214156120d0576040518060400160405280600181526020017f300000000000000000000000000000000000000000000000000000000000000081525090506121e4565b600082905060005b600082146121025780806120eb9061369b565b915050600a826120fb9190613713565b91506120d8565b60008167ffffffffffffffff81111561211e5761211d612729565b5b6040519080825280601f01601f1916602001820160405280156121505781602001600182028036833780820191505090505b5090505b600085146121dd57600182612169919061329b565b9150600a856121789190613744565b6030612184919061300e565b60f81b81838151811061219a57612199613775565b5b60200101907effffffffffffffffffffffffffffffffffffffffffffffffffffffffffffff1916908160001a905350600a856121d69190613713565b9450612154565b8093505050505b919050565b6000808273ffffffffffffffffffffffffffffffffffffffff163b119050919050565b82805461221890612a72565b90600052602060002090601f01602090048101928261223a5760008555612281565b82601f1061225357805160ff1916838001178555612281565b82800160010185558215612281579182015b82811115612280578251825591602001919060010190612265565b5b50905061228e9190612292565b5090565b5b808211156122ab576000816000905550600101612293565b5090565b6000604051905090565b600080fd5b600080fd5b600073ffffffffffffffffffffffffffffffffffffffff82169050919050565b60006122ee826122c3565b9050919050565b6122fe816122e3565b811461230957600080fd5b50565b60008135905061231b816122f5565b92915050565b6000819050919050565b61233481612321565b811461233f57600080fd5b50565b6000813590506123518161232b565b92915050565b6000806040838503121561236e5761236d6122b9565b5b600061237c8582860161230c565b925050602061238d85828601612342565b9150509250929050565b6123a081612321565b82525050565b6123af816122e3565b82525050565b60006040820190506123ca6000830185612397565b6123d760208301846123a6565b9392505050565b60007fffffffff0000000000000000000000000000000000000000000000000000000082169050919050565b612413816123de565b811461241e57600080fd5b50565b6000813590506124308161240a565b92915050565b60006020828403121561244c5761244b6122b9565b5b600061245a84828501612421565b91505092915050565b60008115159050919050565b61247881612463565b82525050565b6000602082019050612493600083018461246f565b92915050565b600081519050919050565b600082825260208201905092915050565b60005b838110156124d35780820151818401526020810190506124b8565b838111156124e2576000848401525b50505050565b6000601f19601f8301169050919050565b600061250482612499565b61250e81856124a4565b935061251e8185602086016124b5565b612527816124e8565b840191505092915050565b6000602082019050818103600083015261254c81846124f9565b905092915050565b60006020828403121561256a576125696122b9565b5b600061257884828501612342565b91505092915050565b600060208201905061259660008301846123a6565b92915050565b6000806000606084860312156125b5576125b46122b9565b5b60006125c38682870161230c565b93505060206125d48682870161230c565b92505060406125e586828701612342565b9150509250925092565b60006125fa826122c3565b9050919050565b61260a816125ef565b82525050565b60006020820190506126256000830184612601565b92915050565b60008060408385031215612642576126416122b9565b5b600061265085828601612342565b925050602061266185828601612342565b9150509250929050565b600060208284031215612681576126806122b9565b5b600061268f8482850161230c565b91505092915050565b60006020820190506126ad6000830184612397565b92915050565b6126bc81612463565b81146126c757600080fd5b50565b6000813590506126d9816126b3565b92915050565b600080604083850312156126f6576126f56122b9565b5b60006127048582860161230c565b9250506020612715858286016126ca565b9150509250929050565b600080fd5b600080fd5b7f4e487b7100000000000000000000000000000000000000000000000000000000600052604160045260246000fd5b612761826124e8565b810181811067ffffffffffffffff821117156127805761277f612729565b5b80604052505050565b60006127936122af565b905061279f8282612758565b919050565b600067ffffffffffffffff8211156127bf576127be612729565b5b6127c8826124e8565b9050602081019050919050565b82818337600083830152505050565b60006127f76127f2846127a4565b612789565b90508281526020810184848401111561281357612812612724565b5b61281e8482856127d5565b509392505050565b600082601f83011261283b5761283a61271f565b5b813561284b8482602086016127e4565b91505092915050565b6000806000806080858703121561286e5761286d6122b9565b5b600061287c8782880161230c565b945050602061288d8782880161230c565b935050604061289e87828801612342565b925050606085013567ffffffffffffffff8111156128bf576128be6122be565b5b6128cb87828801612826565b91505092959194509250565b600067ffffffffffffffff8211156128f2576128f1612729565b5b6128fb826124e8565b9050602081019050919050565b600061291b612916846128d7565b612789565b90508281526020810184848401111561293757612936612724565b5b6129428482856127d5565b509392505050565b600082601f83011261295f5761295e61271f565b5b813561296f848260208601612908565b91505092915050565b600080600060608486031215612991576129906122b9565b5b600084013567ffffffffffffffff8111156129af576129ae6122be565b5b6129bb8682870161294a565b935050602084013567ffffffffffffffff8111156129dc576129db6122be565b5b6129e88682870161294a565b92505060406129f986828701612342565b9150509250925092565b60008060408385031215612a1a57612a196122b9565b5b6000612a288582860161230c565b9250506020612a398582860161230c565b9150509250929050565b7f4e487b7100000000000000000000000000000000000000000000000000000000600052602260045260246000fd5b60006002820490506001821680612a8a57607f821691505b60208210811415612a9e57612a9d612a43565b5b50919050565b7f4552433732313a20617070726f76656420717565727920666f72206e6f6e657860008201527f697374656e7420746f6b656e0000000000000000000000000000000000000000602082015250565b6000612b00602c836124a4565b9150612b0b82612aa4565b604082019050919050565b60006020820190508181036000830152612b2f81612af3565b9050919050565b7f4552433732313a20617070726f76616c20746f2063757272656e74206f776e6560008201527f7200000000000000000000000000000000000000000000000000000000000000602082015250565b6000612b926021836124a4565b9150612b9d82612b36565b604082019050919050565b60006020820190508181036000830152612bc181612b85565b9050919050565b7f4552433732313a20617070726f76652063616c6c6572206973206e6f74206f7760008201527f6e6572206e6f7220617070726f76656420666f7220616c6c0000000000000000602082015250565b6000612c246038836124a4565b9150612c2f82612bc8565b604082019050919050565b60006020820190508181036000830152612c5381612c17565b9050919050565b7f4552433732313a207472616e736665722063616c6c6572206973206e6f74206f60008201527f776e6572206e6f7220617070726f766564000000000000000000000000000000602082015250565b6000612cb66031836124a4565b9150612cc182612c5a565b604082019050919050565b60006020820190508181036000830152612ce581612ca9565b9050919050565b7f4552433732313a206f776e657220717565727920666f72206e6f6e657869737460008201527f656e7420746f6b656e0000000000000000000000000000000000000000000000602082015250565b6000612d486029836124a4565b9150612d5382612cec565b604082019050919050565b60006020820190508181036000830152612d7781612d3b565b9050919050565b7f4552433732313a2062616c616e636520717565727920666f7220746865207a6560008201527f726f206164647265737300000000000000000000000000000000000000000000602082015250565b6000612dda602a836124a4565b9150612de582612d7e565b604082019050919050565b60006020820190508181036000830152612e0981612dcd565b9050919050565b7f45524337323155524953746f726167653a2055524920717565727920666f722060008201527f6e6f6e6578697374656e7420746f6b656e000000000000000000000000000000602082015250565b6000612e6c6031836124a4565b9150612e7782612e10565b604082019050919050565b60006020820190508181036000830152612e9b81612e5f565b9050919050565b600081905092915050565b6000612eb882612499565b612ec28185612ea2565b9350612ed28185602086016124b5565b80840191505092915050565b6000612eea8285612ead565b9150612ef68284612ead565b91508190509392505050565b7f4e6f207469656e6573207065726d69736f730000000000000000000000000000600082015250565b6000612f386012836124a4565b9150612f4382612f02565b602082019050919050565b60006020820190508181036000830152612f6781612f2b565b9050919050565b6000612f7a8284612ead565b915081905092915050565b7f4e487b7100000000000000000000000000000000000000000000000000000000600052601160045260246000fd5b6000612fbf82612321565b9150612fca83612321565b9250817fffffffffffffffffffffffffffffffffffffffffffffffffffffffffffffffff048311821515161561300357613002612f85565b5b828202905092915050565b600061301982612321565b915061302483612321565b9250827fffffffffffffffffffffffffffffffffffffffffffffffffffffffffffffffff0382111561305957613058612f85565b5b828201905092915050565b600082825260208201905092915050565b50565b6000613085600083613064565b915061309082613075565b600082019050919050565b60006080820190506130b060008301866123a6565b6130bd60208301856123a6565b6130ca6040830184612397565b81810360608301526130db81613078565b9050949350505050565b7f4552433732313a206f70657261746f7220717565727920666f72206e6f6e657860008201527f697374656e7420746f6b656e0000000000000000000000000000000000000000602082015250565b6000613141602c836124a4565b915061314c826130e5565b604082019050919050565b6000602082019050818103600083015261317081613134565b9050919050565b7f4552433732313a207472616e736665722066726f6d20696e636f72726563742060008201527f6f776e6572000000000000000000000000000000000000000000000000000000602082015250565b60006131d36025836124a4565b91506131de82613177565b604082019050919050565b60006020820190508181036000830152613202816131c6565b9050919050565b7f4552433732313a207472616e7366657220746f20746865207a65726f2061646460008201527f7265737300000000000000000000000000000000000000000000000000000000602082015250565b60006132656024836124a4565b915061327082613209565b604082019050919050565b6000602082019050818103600083015261329481613258565b9050919050565b60006132a682612321565b91506132b183612321565b9250828210156132c4576132c3612f85565b5b828203905092915050565b7f4552433732313a20617070726f766520746f2063616c6c657200000000000000600082015250565b60006133056019836124a4565b9150613310826132cf565b602082019050919050565b60006020820190508181036000830152613334816132f8565b9050919050565b7f4552433732313a207472616e7366657220746f206e6f6e20455243373231526560008201527f63656976657220696d706c656d656e7465720000000000000000000000000000602082015250565b60006133976032836124a4565b91506133a28261333b565b604082019050919050565b600060208201905081810360008301526133c68161338a565b9050919050565b7f4552433732314d657461646174613a2055524920717565727920666f72206e6f60008201527f6e6578697374656e7420746f6b656e0000000000000000000000000000000000602082015250565b6000613429602f836124a4565b9150613434826133cd565b604082019050919050565b600060208201905081810360008301526134588161341c565b9050919050565b7f4552433732313a206d696e7420746f20746865207a65726f2061646472657373600082015250565b60006134956020836124a4565b91506134a08261345f565b602082019050919050565b600060208201905081810360008301526134c481613488565b9050919050565b7f4552433732313a20746f6b656e20616c7265616479206d696e74656400000000600082015250565b6000613501601c836124a4565b915061350c826134cb565b602082019050919050565b60006020820190508181036000830152613530816134f4565b9050919050565b7f45524337323155524953746f726167653a2055524920736574206f66206e6f6e60008201527f6578697374656e7420746f6b656e000000000000000000000000000000000000602082015250565b6000613593602e836124a4565b915061359e82613537565b604082019050919050565b600060208201905081810360008301526135c281613586565b9050919050565b600081519050919050565b60006135df826135c9565b6135e98185613064565b93506135f98185602086016124b5565b613602816124e8565b840191505092915050565b600060808201905061362260008301876123a6565b61362f60208301866123a6565b61363c6040830185612397565b818103606083015261364e81846135d4565b905095945050505050565b6000815190506136688161240a565b92915050565b600060208284031215613684576136836122b9565b5b600061369284828501613659565b91505092915050565b60006136a682612321565b91507fffffffffffffffffffffffffffffffffffffffffffffffffffffffffffffffff8214156136d9576136d8612f85565b5b600182019050919050565b7f4e487b7100000000000000000000000000000000000000000000000000000000600052601260045260246000fd5b600061371e82612321565b915061372983612321565b925082613739576137386136e4565b5b828204905092915050565b600061374f82612321565b915061375a83612321565b92508261376a576137696136e4565b5b828206905092915050565b7f4e487b7100000000000000000000000000000000000000000000000000000000600052603260045260246000fdfea26469706673582212203bcbe3b601f838565ad89bacd03c3e92945b0dac79e0f79321e7dc4791e91a1164736f6c634300080c0033",
  "immutableReferences": {},
  "source": "// contracts/GameItem.sol\r\n// SPDX-License-Identifier: MIT\r\npragma solidity >=0.4.22 <0.9.0;\r\nimport \"@openzeppelin/contracts/token/ERC721/ERC721.sol\";\r\nimport \"@openzeppelin/contracts/token/ERC721/extensions/ERC721URIStorage.sol\";\r\nimport \"@openzeppelin/contracts/utils/Counters.sol\";\r\nimport \"@openzeppelin/contracts/token/ERC20/ERC20.sol\";\r\n\r\ncontract Color is ERC721URIStorage {\r\n    using Counters for Counters.Counter;\r\n    Counters.Counter private _tokenIds;\r\n\r\n    address payable public admin;\r\n    address public nftCONTRACT;\r\n    constructor() ERC721(\"Robot\", \"ROBOT\") {\r\n        admin=payable(msg.sender);\r\n        nftCONTRACT=address(this);\r\n    }\r\n    string [] public colors;\r\n    mapping(uint=>address) [] public owners;\r\n\r\n\r\n    mapping (string=>bool) _colorExists;\r\n\r\n    modifier onlyAdmin {\r\n        require(msg.sender==admin,\"No tienes permisos\");\r\n        _;\r\n    }\r\n\r\n    function verAdmin() public view returns(address payable) {\r\n        return admin;\r\n    }\r\n\r\n        mapping (address=>uint) balances;\r\n\r\n    mapping (address=>mapping(uint=>Listing)) public listings;\r\n    struct Listing {\r\n        uint price;\r\n        address seller;\r\n    }\r\n\r\n\r\n    function purchase(uint tokenId) public payable {\r\n        Listing memory item=listings[admin][tokenId];\r\n        require(msg.value >= item.price*(1 ether));\r\n        balances[item.seller]+=msg.value;\r\n        payable(item.seller).transfer(item.price*(1 ether));\r\n        ERC721URIStorage token = ERC721URIStorage(nftCONTRACT);\r\n        token.safeTransferFrom(item.seller, msg.sender, tokenId,\"\"); \r\n    }\r\n\r\n\r\n    function viewPrice(uint _tokenId) public view returns(uint) {\r\n        return listings[ownerOf(_tokenId)][_tokenId].price;\r\n    }\r\n\r\n    function mint(string memory _color,string memory tokenURI,uint _price) public onlyAdmin returns (uint256)\r\n    {\r\n        require(!_colorExists[_color]);\r\n        _tokenIds.increment();\r\n\r\n        uint256 newItemId = _tokenIds.current();\r\n        colors.push(_color);\r\n        _mint(admin, newItemId);\r\n        _setTokenURI(newItemId, tokenURI);\r\n        _colorExists[_color] = true;\r\n        listings[admin][newItemId]=Listing(_price,admin);\r\n        setApprovalForAll(nftCONTRACT,true); \r\n        return newItemId;\r\n    }\r\n\r\n\r\n\r\n    function getNFTSLength() public view returns(uint) {\r\n        return colors.length;\r\n    }\r\n}\r\n",
  "sourcePath": "C:\\Users\\Agust\\OneDrive\\Escritorio\\CursoDAPPS\\clo\\contracts\\Color.sol",
  "compiler": {
    "name": "solc",
    "version": "0.8.12+commit.f00d7308.Emscripten.clang"
  },
  "schemaVersion": "3.4.6",
  "updatedAt": "2022-04-16T19:16:29.471Z",
  "networkType": "ethereum",
  "devdoc": {
    "kind": "dev",
    "methods": {
      "approve(address,uint256)": {
        "details": "See {IERC721-approve}."
      },
      "balanceOf(address)": {
        "details": "See {IERC721-balanceOf}."
      },
      "getApproved(uint256)": {
        "details": "See {IERC721-getApproved}."
      },
      "isApprovedForAll(address,address)": {
        "details": "See {IERC721-isApprovedForAll}."
      },
      "name()": {
        "details": "See {IERC721Metadata-name}."
      },
      "ownerOf(uint256)": {
        "details": "See {IERC721-ownerOf}."
      },
      "safeTransferFrom(address,address,uint256)": {
        "details": "See {IERC721-safeTransferFrom}."
      },
      "safeTransferFrom(address,address,uint256,bytes)": {
        "details": "See {IERC721-safeTransferFrom}."
      },
      "setApprovalForAll(address,bool)": {
        "details": "See {IERC721-setApprovalForAll}."
      },
      "supportsInterface(bytes4)": {
        "details": "See {IERC165-supportsInterface}."
      },
      "symbol()": {
        "details": "See {IERC721Metadata-symbol}."
      },
      "tokenURI(uint256)": {
        "details": "See {IERC721Metadata-tokenURI}."
      },
      "transferFrom(address,address,uint256)": {
        "details": "See {IERC721-transferFrom}."
      }
    },
    "version": 1
  },
  "userdoc": {
    "kind": "user",
    "methods": {},
    "version": 1
  }
}