{
  "contractName": "Color",
  "abi": [
    {
      "inputs": [],
      "stateMutability": "nonpayable",
      "type": "constructor"
    },
    {
      "anonymous": false,
      "inputs": [
        {
          "indexed": true,
          "internalType": "address",
          "name": "owner",
          "type": "address"
        },
        {
          "indexed": true,
          "internalType": "address",
          "name": "approved",
          "type": "address"
        },
        {
          "indexed": true,
          "internalType": "uint256",
          "name": "tokenId",
          "type": "uint256"
        }
      ],
      "name": "Approval",
      "type": "event"
    },
    {
      "anonymous": false,
      "inputs": [
        {
          "indexed": true,
          "internalType": "address",
          "name": "owner",
          "type": "address"
        },
        {
          "indexed": true,
          "internalType": "address",
          "name": "operator",
          "type": "address"
        },
        {
          "indexed": false,
          "internalType": "bool",
          "name": "approved",
          "type": "bool"
        }
      ],
      "name": "ApprovalForAll",
      "type": "event"
    },
    {
      "anonymous": false,
      "inputs": [
        {
          "indexed": true,
          "internalType": "address",
          "name": "from",
          "type": "address"
        },
        {
          "indexed": true,
          "internalType": "address",
          "name": "to",
          "type": "address"
        },
        {
          "indexed": true,
          "internalType": "uint256",
          "name": "tokenId",
          "type": "uint256"
        }
      ],
      "name": "Transfer",
      "type": "event"
    },
    {
      "inputs": [],
      "name": "admin",
      "outputs": [
        {
          "internalType": "address",
          "name": "",
          "type": "address"
        }
      ],
      "stateMutability": "view",
      "type": "function",
      "constant": true
    },
    {
      "inputs": [
        {
          "internalType": "address",
          "name": "to",
          "type": "address"
        },
        {
          "internalType": "uint256",
          "name": "tokenId",
          "type": "uint256"
        }
      ],
      "name": "approve",
      "outputs": [],
      "stateMutability": "nonpayable",
      "type": "function"
    },
    {
      "inputs": [
        {
          "internalType": "address",
          "name": "owner",
          "type": "address"
        }
      ],
      "name": "balanceOf",
      "outputs": [
        {
          "internalType": "uint256",
          "name": "",
          "type": "uint256"
        }
      ],
      "stateMutability": "view",
      "type": "function",
      "constant": true
    },
    {
      "inputs": [
        {
          "internalType": "uint256",
          "name": "",
          "type": "uint256"
        }
      ],
      "name": "colors",
      "outputs": [
        {
          "internalType": "string",
          "name": "",
          "type": "string"
        }
      ],
      "stateMutability": "view",
      "type": "function",
      "constant": true
    },
    {
      "inputs": [
        {
          "internalType": "uint256",
          "name": "tokenId",
          "type": "uint256"
        }
      ],
      "name": "getApproved",
      "outputs": [
        {
          "internalType": "address",
          "name": "",
          "type": "address"
        }
      ],
      "stateMutability": "view",
      "type": "function",
      "constant": true
    },
    {
      "inputs": [
        {
          "internalType": "address",
          "name": "owner",
          "type": "address"
        },
        {
          "internalType": "address",
          "name": "operator",
          "type": "address"
        }
      ],
      "name": "isApprovedForAll",
      "outputs": [
        {
          "internalType": "bool",
          "name": "",
          "type": "bool"
        }
      ],
      "stateMutability": "view",
      "type": "function",
      "constant": true
    },
    {
      "inputs": [],
      "name": "name",
      "outputs": [
        {
          "internalType": "string",
          "name": "",
          "type": "string"
        }
      ],
      "stateMutability": "view",
      "type": "function",
      "constant": true
    },
    {
      "inputs": [
        {
          "internalType": "uint256",
          "name": "tokenId",
          "type": "uint256"
        }
      ],
      "name": "ownerOf",
      "outputs": [
        {
          "internalType": "address",
          "name": "",
          "type": "address"
        }
      ],
      "stateMutability": "view",
      "type": "function",
      "constant": true
    },
    {
      "inputs": [
        {
          "internalType": "address",
          "name": "from",
          "type": "address"
        },
        {
          "internalType": "address",
          "name": "to",
          "type": "address"
        },
        {
          "internalType": "uint256",
          "name": "tokenId",
          "type": "uint256"
        }
      ],
      "name": "safeTransferFrom",
      "outputs": [],
      "stateMutability": "nonpayable",
      "type": "function"
    },
    {
      "inputs": [
        {
          "internalType": "address",
          "name": "from",
          "type": "address"
        },
        {
          "internalType": "address",
          "name": "to",
          "type": "address"
        },
        {
          "internalType": "uint256",
          "name": "tokenId",
          "type": "uint256"
        },
        {
          "internalType": "bytes",
          "name": "_data",
          "type": "bytes"
        }
      ],
      "name": "safeTransferFrom",
      "outputs": [],
      "stateMutability": "nonpayable",
      "type": "function"
    },
    {
      "inputs": [
        {
          "internalType": "address",
          "name": "operator",
          "type": "address"
        },
        {
          "internalType": "bool",
          "name": "approved",
          "type": "bool"
        }
      ],
      "name": "setApprovalForAll",
      "outputs": [],
      "stateMutability": "nonpayable",
      "type": "function"
    },
    {
      "inputs": [
        {
          "internalType": "bytes4",
          "name": "interfaceId",
          "type": "bytes4"
        }
      ],
      "name": "supportsInterface",
      "outputs": [
        {
          "internalType": "bool",
          "name": "",
          "type": "bool"
        }
      ],
      "stateMutability": "view",
      "type": "function",
      "constant": true
    },
    {
      "inputs": [],
      "name": "symbol",
      "outputs": [
        {
          "internalType": "string",
          "name": "",
          "type": "string"
        }
      ],
      "stateMutability": "view",
      "type": "function",
      "constant": true
    },
    {
      "inputs": [
        {
          "internalType": "uint256",
          "name": "tokenId",
          "type": "uint256"
        }
      ],
      "name": "tokenURI",
      "outputs": [
        {
          "internalType": "string",
          "name": "",
          "type": "string"
        }
      ],
      "stateMutability": "view",
      "type": "function",
      "constant": true
    },
    {
      "inputs": [
        {
          "internalType": "address",
          "name": "from",
          "type": "address"
        },
        {
          "internalType": "address",
          "name": "to",
          "type": "address"
        },
        {
          "internalType": "uint256",
          "name": "tokenId",
          "type": "uint256"
        }
      ],
      "name": "transferFrom",
      "outputs": [],
      "stateMutability": "nonpayable",
      "type": "function"
    },
    {
      "inputs": [],
      "name": "verAdmin",
      "outputs": [
        {
          "internalType": "address",
          "name": "",
          "type": "address"
        }
      ],
      "stateMutability": "view",
      "type": "function",
      "constant": true
    },
    {
      "inputs": [
        {
          "internalType": "string",
          "name": "_color",
          "type": "string"
        },
        {
          "internalType": "string",
          "name": "tokenURI",
          "type": "string"
        }
      ],
      "name": "mint",
      "outputs": [
        {
          "internalType": "uint256",
          "name": "",
          "type": "uint256"
        }
      ],
      "stateMutability": "nonpayable",
      "type": "function"
    }
  ],
  "bytecode": "0x60806040523480156200001157600080fd5b506040518060400160405280600581526020017f436f6c6f720000000000000000000000000000000000000000000000000000008152506040518060400160405280600581526020017f434f4c4f52000000000000000000000000000000000000000000000000000000815250816000908051906020019062000096929190620000f9565b508060019080519060200190620000af929190620000f9565b50505033600860006101000a81548173ffffffffffffffffffffffffffffffffffffffff021916908373ffffffffffffffffffffffffffffffffffffffff1602179055506200020e565b8280546200010790620001d8565b90600052602060002090601f0160209004810192826200012b576000855562000177565b82601f106200014657805160ff191683800117855562000177565b8280016001018555821562000177579182015b828111156200017657825182559160200191906001019062000159565b5b5090506200018691906200018a565b5090565b5b80821115620001a55760008160009055506001016200018b565b5090565b7f4e487b7100000000000000000000000000000000000000000000000000000000600052602260045260246000fd5b60006002820490506001821680620001f157607f821691505b60208210811415620002085762000207620001a9565b5b50919050565b612f23806200021e6000396000f3fe608060405234801561001057600080fd5b506004361061010b5760003560e01c806370a08231116100a2578063b88d4fde11610071578063b88d4fde146102ca578063bd11f69d146102e6578063c87b56dd14610316578063e985e9c514610346578063f851a440146103765761010b565b806370a08231146102305780638aa0fdad1461026057806395d89b4114610290578063a22cb465146102ae5761010b565b806323b872dd116100de57806323b872dd146101aa57806332d455bf146101c657806342842e0e146101e45780636352211e146102005761010b565b806301ffc9a71461011057806306fdde0314610140578063081812fc1461015e578063095ea7b31461018e575b600080fd5b61012a60048036038101906101259190611be6565b610394565b6040516101379190611c2e565b60405180910390f35b610148610476565b6040516101559190611ce2565b60405180910390f35b61017860048036038101906101739190611d3a565b610508565b6040516101859190611da8565b60405180910390f35b6101a860048036038101906101a39190611def565b61058d565b005b6101c460048036038101906101bf9190611e2f565b6106a5565b005b6101ce610705565b6040516101db9190611da8565b60405180910390f35b6101fe60048036038101906101f99190611e2f565b61072f565b005b61021a60048036038101906102159190611d3a565b61074f565b6040516102279190611da8565b60405180910390f35b61024a60048036038101906102459190611e82565b610801565b6040516102579190611ebe565b60405180910390f35b61027a6004803603810190610275919061200e565b6108b9565b6040516102879190611ebe565b60405180910390f35b610298610a2a565b6040516102a59190611ce2565b60405180910390f35b6102c860048036038101906102c391906120b2565b610abc565b005b6102e460048036038101906102df9190612193565b610ad2565b005b61030060048036038101906102fb9190611d3a565b610b34565b60405161030d9190611ce2565b60405180910390f35b610330600480360381019061032b9190611d3a565b610be0565b60405161033d9190611ce2565b60405180910390f35b610360600480360381019061035b9190612216565b610d32565b60405161036d9190611c2e565b60405180910390f35b61037e610dc6565b60405161038b9190611da8565b60405180910390f35b60007f80ac58cd000000000000000000000000000000000000000000000000000000007bffffffffffffffffffffffffffffffffffffffffffffffffffffffff1916827bffffffffffffffffffffffffffffffffffffffffffffffffffffffff1916148061045f57507f5b5e139f000000000000000000000000000000000000000000000000000000007bffffffffffffffffffffffffffffffffffffffffffffffffffffffff1916827bffffffffffffffffffffffffffffffffffffffffffffffffffffffff1916145b8061046f575061046e82610dec565b5b9050919050565b60606000805461048590612285565b80601f01602080910402602001604051908101604052809291908181526020018280546104b190612285565b80156104fe5780601f106104d3576101008083540402835291602001916104fe565b820191906000526020600020905b8154815290600101906020018083116104e157829003601f168201915b5050505050905090565b600061051382610e56565b610552576040517f08c379a000000000000000000000000000000000000000000000000000000000815260040161054990612329565b60405180910390fd5b6004600083815260200190815260200160002060009054906101000a900473ffffffffffffffffffffffffffffffffffffffff169050919050565b60006105988261074f565b90508073ffffffffffffffffffffffffffffffffffffffff168373ffffffffffffffffffffffffffffffffffffffff161415610609576040517f08c379a0000000000000000000000000000000000000000000000000000000008152600401610600906123bb565b60405180910390fd5b8073ffffffffffffffffffffffffffffffffffffffff16610628610ec2565b73ffffffffffffffffffffffffffffffffffffffff161480610657575061065681610651610ec2565b610d32565b5b610696576040517f08c379a000000000000000000000000000000000000000000000000000000000815260040161068d9061244d565b60405180910390fd5b6106a08383610eca565b505050565b6106b66106b0610ec2565b82610f83565b6106f5576040517f08c379a00000000000000000000000000000000000000000000000000000000081526004016106ec906124df565b60405180910390fd5b610700838383611061565b505050565b6000600860009054906101000a900473ffffffffffffffffffffffffffffffffffffffff16905090565b61074a83838360405180602001604052806000815250610ad2565b505050565b6000806002600084815260200190815260200160002060009054906101000a900473ffffffffffffffffffffffffffffffffffffffff169050600073ffffffffffffffffffffffffffffffffffffffff168173ffffffffffffffffffffffffffffffffffffffff1614156107f8576040517f08c379a00000000000000000000000000000000000000000000000000000000081526004016107ef90612571565b60405180910390fd5b80915050919050565b60008073ffffffffffffffffffffffffffffffffffffffff168273ffffffffffffffffffffffffffffffffffffffff161415610872576040517f08c379a000000000000000000000000000000000000000000000000000000000815260040161086990612603565b60405180910390fd5b600360008373ffffffffffffffffffffffffffffffffffffffff1673ffffffffffffffffffffffffffffffffffffffff168152602001908152602001600020549050919050565b6000600860009054906101000a900473ffffffffffffffffffffffffffffffffffffffff1673ffffffffffffffffffffffffffffffffffffffff163373ffffffffffffffffffffffffffffffffffffffff161461094b576040517f08c379a00000000000000000000000000000000000000000000000000000000081526004016109429061266f565b60405180910390fd5b600a8360405161095b91906126cb565b908152602001604051809103902060009054906101000a900460ff161561098157600080fd5b61098b60076112c8565b600061099760076112de565b90506009849080600181540180825580915050600190039060005260206000200160009091909190915090805190602001906109d4929190611ad7565b506109df33826112ec565b6109e981846114c6565b6001600a856040516109fb91906126cb565b908152602001604051809103902060006101000a81548160ff0219169083151502179055508091505092915050565b606060018054610a3990612285565b80601f0160208091040260200160405190810160405280929190818152602001828054610a6590612285565b8015610ab25780601f10610a8757610100808354040283529160200191610ab2565b820191906000526020600020905b815481529060010190602001808311610a9557829003601f168201915b5050505050905090565b610ace610ac7610ec2565b838361153a565b5050565b610ae3610add610ec2565b83610f83565b610b22576040517f08c379a0000000000000000000000000000000000000000000000000000000008152600401610b19906124df565b60405180910390fd5b610b2e848484846116a7565b50505050565b60098181548110610b4457600080fd5b906000526020600020016000915090508054610b5f90612285565b80601f0160208091040260200160405190810160405280929190818152602001828054610b8b90612285565b8015610bd85780601f10610bad57610100808354040283529160200191610bd8565b820191906000526020600020905b815481529060010190602001808311610bbb57829003601f168201915b505050505081565b6060610beb82610e56565b610c2a576040517f08c379a0000000000000000000000000000000000000000000000000000000008152600401610c2190612754565b60405180910390fd5b6000600660008481526020019081526020016000208054610c4a90612285565b80601f0160208091040260200160405190810160405280929190818152602001828054610c7690612285565b8015610cc35780601f10610c9857610100808354040283529160200191610cc3565b820191906000526020600020905b815481529060010190602001808311610ca657829003601f168201915b505050505090506000610cd4611703565b9050600081511415610cea578192505050610d2d565b600082511115610d1f578082604051602001610d07929190612774565b60405160208183030381529060405292505050610d2d565b610d288461171a565b925050505b919050565b6000600560008473ffffffffffffffffffffffffffffffffffffffff1673ffffffffffffffffffffffffffffffffffffffff16815260200190815260200160002060008373ffffffffffffffffffffffffffffffffffffffff1673ffffffffffffffffffffffffffffffffffffffff16815260200190815260200160002060009054906101000a900460ff16905092915050565b600860009054906101000a900473ffffffffffffffffffffffffffffffffffffffff1681565b60007f01ffc9a7000000000000000000000000000000000000000000000000000000007bffffffffffffffffffffffffffffffffffffffffffffffffffffffff1916827bffffffffffffffffffffffffffffffffffffffffffffffffffffffff1916149050919050565b60008073ffffffffffffffffffffffffffffffffffffffff166002600084815260200190815260200160002060009054906101000a900473ffffffffffffffffffffffffffffffffffffffff1673ffffffffffffffffffffffffffffffffffffffff1614159050919050565b600033905090565b816004600083815260200190815260200160002060006101000a81548173ffffffffffffffffffffffffffffffffffffffff021916908373ffffffffffffffffffffffffffffffffffffffff160217905550808273ffffffffffffffffffffffffffffffffffffffff16610f3d8361074f565b73ffffffffffffffffffffffffffffffffffffffff167f8c5be1e5ebec7d5bd14f71427d1e84f3dd0314c0f7b2291e5b200ac8c7c3b92560405160405180910390a45050565b6000610f8e82610e56565b610fcd576040517f08c379a0000000000000000000000000000000000000000000000000000000008152600401610fc49061280a565b60405180910390fd5b6000610fd88361074f565b90508073ffffffffffffffffffffffffffffffffffffffff168473ffffffffffffffffffffffffffffffffffffffff16148061104757508373ffffffffffffffffffffffffffffffffffffffff1661102f84610508565b73ffffffffffffffffffffffffffffffffffffffff16145b8061105857506110578185610d32565b5b91505092915050565b8273ffffffffffffffffffffffffffffffffffffffff166110818261074f565b73ffffffffffffffffffffffffffffffffffffffff16146110d7576040517f08c379a00000000000000000000000000000000000000000000000000000000081526004016110ce9061289c565b60405180910390fd5b600073ffffffffffffffffffffffffffffffffffffffff168273ffffffffffffffffffffffffffffffffffffffff161415611147576040517f08c379a000000000000000000000000000000000000000000000000000000000815260040161113e9061292e565b60405180910390fd5b6111528383836117c1565b61115d600082610eca565b6001600360008573ffffffffffffffffffffffffffffffffffffffff1673ffffffffffffffffffffffffffffffffffffffff16815260200190815260200160002060008282546111ad919061297d565b925050819055506001600360008473ffffffffffffffffffffffffffffffffffffffff1673ffffffffffffffffffffffffffffffffffffffff168152602001908152602001600020600082825461120491906129b1565b92505081905550816002600083815260200190815260200160002060006101000a81548173ffffffffffffffffffffffffffffffffffffffff021916908373ffffffffffffffffffffffffffffffffffffffff160217905550808273ffffffffffffffffffffffffffffffffffffffff168473ffffffffffffffffffffffffffffffffffffffff167fddf252ad1be2c89b69c2b068fc378daa952ba7f163c4a11628f55a4df523b3ef60405160405180910390a46112c38383836117c6565b505050565b6001816000016000828254019250508190555050565b600081600001549050919050565b600073ffffffffffffffffffffffffffffffffffffffff168273ffffffffffffffffffffffffffffffffffffffff16141561135c576040517f08c379a000000000000000000000000000000000000000000000000000000000815260040161135390612a53565b60405180910390fd5b61136581610e56565b156113a5576040517f08c379a000000000000000000000000000000000000000000000000000000000815260040161139c90612abf565b60405180910390fd5b6113b1600083836117c1565b6001600360008473ffffffffffffffffffffffffffffffffffffffff1673ffffffffffffffffffffffffffffffffffffffff168152602001908152602001600020600082825461140191906129b1565b92505081905550816002600083815260200190815260200160002060006101000a81548173ffffffffffffffffffffffffffffffffffffffff021916908373ffffffffffffffffffffffffffffffffffffffff160217905550808273ffffffffffffffffffffffffffffffffffffffff16600073ffffffffffffffffffffffffffffffffffffffff167fddf252ad1be2c89b69c2b068fc378daa952ba7f163c4a11628f55a4df523b3ef60405160405180910390a46114c2600083836117c6565b5050565b6114cf82610e56565b61150e576040517f08c379a000000000000000000000000000000000000000000000000000000000815260040161150590612b51565b60405180910390fd5b80600660008481526020019081526020016000209080519060200190611535929190611ad7565b505050565b8173ffffffffffffffffffffffffffffffffffffffff168373ffffffffffffffffffffffffffffffffffffffff1614156115a9576040517f08c379a00000000000000000000000000000000000000000000000000000000081526004016115a090612bbd565b60405180910390fd5b80600560008573ffffffffffffffffffffffffffffffffffffffff1673ffffffffffffffffffffffffffffffffffffffff16815260200190815260200160002060008473ffffffffffffffffffffffffffffffffffffffff1673ffffffffffffffffffffffffffffffffffffffff16815260200190815260200160002060006101000a81548160ff0219169083151502179055508173ffffffffffffffffffffffffffffffffffffffff168373ffffffffffffffffffffffffffffffffffffffff167f17307eab39ab6107e8899845ad3d59bd9653f200f220920489ca2b5937696c318360405161169a9190611c2e565b60405180910390a3505050565b6116b2848484611061565b6116be848484846117cb565b6116fd576040517f08c379a00000000000000000000000000000000000000000000000000000000081526004016116f490612c4f565b60405180910390fd5b50505050565b606060405180602001604052806000815250905090565b606061172582610e56565b611764576040517f08c379a000000000000000000000000000000000000000000000000000000000815260040161175b90612ce1565b60405180910390fd5b600061176e611703565b9050600081511161178e57604051806020016040528060008152506117b9565b8061179884611953565b6040516020016117a9929190612774565b6040516020818303038152906040525b915050919050565b505050565b505050565b60006117ec8473ffffffffffffffffffffffffffffffffffffffff16611ab4565b15611946578373ffffffffffffffffffffffffffffffffffffffff1663150b7a02611815610ec2565b8786866040518563ffffffff1660e01b81526004016118379493929190612d56565b6020604051808303816000875af192505050801561187357506040513d601f19601f820116820180604052508101906118709190612db7565b60015b6118f6573d80600081146118a3576040519150601f19603f3d011682016040523d82523d6000602084013e6118a8565b606091505b506000815114156118ee576040517f08c379a00000000000000000000000000000000000000000000000000000000081526004016118e590612c4f565b60405180910390fd5b805181602001fd5b63150b7a0260e01b7bffffffffffffffffffffffffffffffffffffffffffffffffffffffff1916817bffffffffffffffffffffffffffffffffffffffffffffffffffffffff19161491505061194b565b600190505b949350505050565b6060600082141561199b576040518060400160405280600181526020017f30000000000000000000000000000000000000000000000000000000000000008152509050611aaf565b600082905060005b600082146119cd5780806119b690612de4565b915050600a826119c69190612e5c565b91506119a3565b60008167ffffffffffffffff8111156119e9576119e8611ee3565b5b6040519080825280601f01601f191660200182016040528015611a1b5781602001600182028036833780820191505090505b5090505b60008514611aa857600182611a34919061297d565b9150600a85611a439190612e8d565b6030611a4f91906129b1565b60f81b818381518110611a6557611a64612ebe565b5b60200101907effffffffffffffffffffffffffffffffffffffffffffffffffffffffffffff1916908160001a905350600a85611aa19190612e5c565b9450611a1f565b8093505050505b919050565b6000808273ffffffffffffffffffffffffffffffffffffffff163b119050919050565b828054611ae390612285565b90600052602060002090601f016020900481019282611b055760008555611b4c565b82601f10611b1e57805160ff1916838001178555611b4c565b82800160010185558215611b4c579182015b82811115611b4b578251825591602001919060010190611b30565b5b509050611b599190611b5d565b5090565b5b80821115611b76576000816000905550600101611b5e565b5090565b6000604051905090565b600080fd5b600080fd5b60007fffffffff0000000000000000000000000000000000000000000000000000000082169050919050565b611bc381611b8e565b8114611bce57600080fd5b50565b600081359050611be081611bba565b92915050565b600060208284031215611bfc57611bfb611b84565b5b6000611c0a84828501611bd1565b91505092915050565b60008115159050919050565b611c2881611c13565b82525050565b6000602082019050611c436000830184611c1f565b92915050565b600081519050919050565b600082825260208201905092915050565b60005b83811015611c83578082015181840152602081019050611c68565b83811115611c92576000848401525b50505050565b6000601f19601f8301169050919050565b6000611cb482611c49565b611cbe8185611c54565b9350611cce818560208601611c65565b611cd781611c98565b840191505092915050565b60006020820190508181036000830152611cfc8184611ca9565b905092915050565b6000819050919050565b611d1781611d04565b8114611d2257600080fd5b50565b600081359050611d3481611d0e565b92915050565b600060208284031215611d5057611d4f611b84565b5b6000611d5e84828501611d25565b91505092915050565b600073ffffffffffffffffffffffffffffffffffffffff82169050919050565b6000611d9282611d67565b9050919050565b611da281611d87565b82525050565b6000602082019050611dbd6000830184611d99565b92915050565b611dcc81611d87565b8114611dd757600080fd5b50565b600081359050611de981611dc3565b92915050565b60008060408385031215611e0657611e05611b84565b5b6000611e1485828601611dda565b9250506020611e2585828601611d25565b9150509250929050565b600080600060608486031215611e4857611e47611b84565b5b6000611e5686828701611dda565b9350506020611e6786828701611dda565b9250506040611e7886828701611d25565b9150509250925092565b600060208284031215611e9857611e97611b84565b5b6000611ea684828501611dda565b91505092915050565b611eb881611d04565b82525050565b6000602082019050611ed36000830184611eaf565b92915050565b600080fd5b600080fd5b7f4e487b7100000000000000000000000000000000000000000000000000000000600052604160045260246000fd5b611f1b82611c98565b810181811067ffffffffffffffff82111715611f3a57611f39611ee3565b5b80604052505050565b6000611f4d611b7a565b9050611f598282611f12565b919050565b600067ffffffffffffffff821115611f7957611f78611ee3565b5b611f8282611c98565b9050602081019050919050565b82818337600083830152505050565b6000611fb1611fac84611f5e565b611f43565b905082815260208101848484011115611fcd57611fcc611ede565b5b611fd8848285611f8f565b509392505050565b600082601f830112611ff557611ff4611ed9565b5b8135612005848260208601611f9e565b91505092915050565b6000806040838503121561202557612024611b84565b5b600083013567ffffffffffffffff81111561204357612042611b89565b5b61204f85828601611fe0565b925050602083013567ffffffffffffffff8111156120705761206f611b89565b5b61207c85828601611fe0565b9150509250929050565b61208f81611c13565b811461209a57600080fd5b50565b6000813590506120ac81612086565b92915050565b600080604083850312156120c9576120c8611b84565b5b60006120d785828601611dda565b92505060206120e88582860161209d565b9150509250929050565b600067ffffffffffffffff82111561210d5761210c611ee3565b5b61211682611c98565b9050602081019050919050565b6000612136612131846120f2565b611f43565b90508281526020810184848401111561215257612151611ede565b5b61215d848285611f8f565b509392505050565b600082601f83011261217a57612179611ed9565b5b813561218a848260208601612123565b91505092915050565b600080600080608085870312156121ad576121ac611b84565b5b60006121bb87828801611dda565b94505060206121cc87828801611dda565b93505060406121dd87828801611d25565b925050606085013567ffffffffffffffff8111156121fe576121fd611b89565b5b61220a87828801612165565b91505092959194509250565b6000806040838503121561222d5761222c611b84565b5b600061223b85828601611dda565b925050602061224c85828601611dda565b9150509250929050565b7f4e487b7100000000000000000000000000000000000000000000000000000000600052602260045260246000fd5b6000600282049050600182168061229d57607f821691505b602082108114156122b1576122b0612256565b5b50919050565b7f4552433732313a20617070726f76656420717565727920666f72206e6f6e657860008201527f697374656e7420746f6b656e0000000000000000000000000000000000000000602082015250565b6000612313602c83611c54565b915061231e826122b7565b604082019050919050565b6000602082019050818103600083015261234281612306565b9050919050565b7f4552433732313a20617070726f76616c20746f2063757272656e74206f776e6560008201527f7200000000000000000000000000000000000000000000000000000000000000602082015250565b60006123a5602183611c54565b91506123b082612349565b604082019050919050565b600060208201905081810360008301526123d481612398565b9050919050565b7f4552433732313a20617070726f76652063616c6c6572206973206e6f74206f7760008201527f6e6572206e6f7220617070726f76656420666f7220616c6c0000000000000000602082015250565b6000612437603883611c54565b9150612442826123db565b604082019050919050565b600060208201905081810360008301526124668161242a565b9050919050565b7f4552433732313a207472616e736665722063616c6c6572206973206e6f74206f60008201527f776e6572206e6f7220617070726f766564000000000000000000000000000000602082015250565b60006124c9603183611c54565b91506124d48261246d565b604082019050919050565b600060208201905081810360008301526124f8816124bc565b9050919050565b7f4552433732313a206f776e657220717565727920666f72206e6f6e657869737460008201527f656e7420746f6b656e0000000000000000000000000000000000000000000000602082015250565b600061255b602983611c54565b9150612566826124ff565b604082019050919050565b6000602082019050818103600083015261258a8161254e565b9050919050565b7f4552433732313a2062616c616e636520717565727920666f7220746865207a6560008201527f726f206164647265737300000000000000000000000000000000000000000000602082015250565b60006125ed602a83611c54565b91506125f882612591565b604082019050919050565b6000602082019050818103600083015261261c816125e0565b9050919050565b7f4e6f207469656e6573207065726d69736f730000000000000000000000000000600082015250565b6000612659601283611c54565b915061266482612623565b602082019050919050565b600060208201905081810360008301526126888161264c565b9050919050565b600081905092915050565b60006126a582611c49565b6126af818561268f565b93506126bf818560208601611c65565b80840191505092915050565b60006126d7828461269a565b915081905092915050565b7f45524337323155524953746f726167653a2055524920717565727920666f722060008201527f6e6f6e6578697374656e7420746f6b656e000000000000000000000000000000602082015250565b600061273e603183611c54565b9150612749826126e2565b604082019050919050565b6000602082019050818103600083015261276d81612731565b9050919050565b6000612780828561269a565b915061278c828461269a565b91508190509392505050565b7f4552433732313a206f70657261746f7220717565727920666f72206e6f6e657860008201527f697374656e7420746f6b656e0000000000000000000000000000000000000000602082015250565b60006127f4602c83611c54565b91506127ff82612798565b604082019050919050565b60006020820190508181036000830152612823816127e7565b9050919050565b7f4552433732313a207472616e736665722066726f6d20696e636f72726563742060008201527f6f776e6572000000000000000000000000000000000000000000000000000000602082015250565b6000612886602583611c54565b91506128918261282a565b604082019050919050565b600060208201905081810360008301526128b581612879565b9050919050565b7f4552433732313a207472616e7366657220746f20746865207a65726f2061646460008201527f7265737300000000000000000000000000000000000000000000000000000000602082015250565b6000612918602483611c54565b9150612923826128bc565b604082019050919050565b600060208201905081810360008301526129478161290b565b9050919050565b7f4e487b7100000000000000000000000000000000000000000000000000000000600052601160045260246000fd5b600061298882611d04565b915061299383611d04565b9250828210156129a6576129a561294e565b5b828203905092915050565b60006129bc82611d04565b91506129c783611d04565b9250827fffffffffffffffffffffffffffffffffffffffffffffffffffffffffffffffff038211156129fc576129fb61294e565b5b828201905092915050565b7f4552433732313a206d696e7420746f20746865207a65726f2061646472657373600082015250565b6000612a3d602083611c54565b9150612a4882612a07565b602082019050919050565b60006020820190508181036000830152612a6c81612a30565b9050919050565b7f4552433732313a20746f6b656e20616c7265616479206d696e74656400000000600082015250565b6000612aa9601c83611c54565b9150612ab482612a73565b602082019050919050565b60006020820190508181036000830152612ad881612a9c565b9050919050565b7f45524337323155524953746f726167653a2055524920736574206f66206e6f6e60008201527f6578697374656e7420746f6b656e000000000000000000000000000000000000602082015250565b6000612b3b602e83611c54565b9150612b4682612adf565b604082019050919050565b60006020820190508181036000830152612b6a81612b2e565b9050919050565b7f4552433732313a20617070726f766520746f2063616c6c657200000000000000600082015250565b6000612ba7601983611c54565b9150612bb282612b71565b602082019050919050565b60006020820190508181036000830152612bd681612b9a565b9050919050565b7f4552433732313a207472616e7366657220746f206e6f6e20455243373231526560008201527f63656976657220696d706c656d656e7465720000000000000000000000000000602082015250565b6000612c39603283611c54565b9150612c4482612bdd565b604082019050919050565b60006020820190508181036000830152612c6881612c2c565b9050919050565b7f4552433732314d657461646174613a2055524920717565727920666f72206e6f60008201527f6e6578697374656e7420746f6b656e0000000000000000000000000000000000602082015250565b6000612ccb602f83611c54565b9150612cd682612c6f565b604082019050919050565b60006020820190508181036000830152612cfa81612cbe565b9050919050565b600081519050919050565b600082825260208201905092915050565b6000612d2882612d01565b612d328185612d0c565b9350612d42818560208601611c65565b612d4b81611c98565b840191505092915050565b6000608082019050612d6b6000830187611d99565b612d786020830186611d99565b612d856040830185611eaf565b8181036060830152612d978184612d1d565b905095945050505050565b600081519050612db181611bba565b92915050565b600060208284031215612dcd57612dcc611b84565b5b6000612ddb84828501612da2565b91505092915050565b6000612def82611d04565b91507fffffffffffffffffffffffffffffffffffffffffffffffffffffffffffffffff821415612e2257612e2161294e565b5b600182019050919050565b7f4e487b7100000000000000000000000000000000000000000000000000000000600052601260045260246000fd5b6000612e6782611d04565b9150612e7283611d04565b925082612e8257612e81612e2d565b5b828204905092915050565b6000612e9882611d04565b9150612ea383611d04565b925082612eb357612eb2612e2d565b5b828206905092915050565b7f4e487b7100000000000000000000000000000000000000000000000000000000600052603260045260246000fdfea2646970667358221220567411550dec1fac25a837bf6b651b8a204e0d484bf73ee9dbe3a80f3abd20d964736f6c634300080c0033",
  "immutableReferences": {},
  "source": "// contracts/GameItem.sol\r\n// SPDX-License-Identifier: MIT\r\npragma solidity >=0.4.22 <0.9.0;\r\nimport \"@openzeppelin/contracts/token/ERC721/ERC721.sol\";\r\nimport \"@openzeppelin/contracts/token/ERC721/extensions/ERC721URIStorage.sol\";\r\nimport \"@openzeppelin/contracts/utils/Counters.sol\";\r\n\r\ncontract Color is ERC721URIStorage {\r\n    using Counters for Counters.Counter;\r\n    Counters.Counter private _tokenIds;\r\n\r\n    address public admin;\r\n    constructor() ERC721(\"Color\", \"COLOR\") {\r\n        admin=msg.sender;\r\n    }\r\n    string [] public colors;\r\n    mapping (string=>bool) _colorExists;\r\n\r\n  /*   function mint(string memory _color, string memory tokenURI) public returns (uint256)\r\n    {\r\n        require(!_colorExists[_color]);\r\n        _tokenIds.increment();\r\n\r\n        uint256 newItemId = _tokenIds.current();\r\n        colors.push(_color);\r\n        _mint(msg.sender, newItemId);\r\n        _setTokenURI(newItemId, tokenURI);\r\n        _colorExists[_color] = true;\r\n        return newItemId;\r\n    } */\r\n\r\n    modifier onlyAdmin {\r\n        require(msg.sender==admin,\"No tienes permisos\");\r\n        _;\r\n    }\r\n\r\n    function verAdmin() public view returns(address) {\r\n        return admin;\r\n    }\r\n\r\n    function mint(string memory _color,string memory tokenURI) public onlyAdmin returns (uint256)\r\n    {\r\n        require(!_colorExists[_color]);\r\n        _tokenIds.increment();\r\n\r\n        uint256 newItemId = _tokenIds.current();\r\n        colors.push(_color);\r\n        _mint(msg.sender, newItemId);\r\n        _setTokenURI(newItemId, tokenURI);\r\n        _colorExists[_color] = true;\r\n        return newItemId;\r\n    }\r\n}",
  "sourcePath": "C:\\Users\\Agust\\OneDrive\\Escritorio\\CursoDAPPS\\clo\\contracts\\Color.sol",
  "compiler": {
    "name": "solc",
    "version": "0.8.12+commit.f00d7308.Emscripten.clang"
  },
  "schemaVersion": "3.4.6",
  "updatedAt": "2022-04-13T04:25:01.673Z",
  "networkType": "ethereum",
  "devdoc": {
    "kind": "dev",
    "methods": {
      "approve(address,uint256)": {
        "details": "See {IERC721-approve}."
      },
      "balanceOf(address)": {
        "details": "See {IERC721-balanceOf}."
      },
      "getApproved(uint256)": {
        "details": "See {IERC721-getApproved}."
      },
      "isApprovedForAll(address,address)": {
        "details": "See {IERC721-isApprovedForAll}."
      },
      "name()": {
        "details": "See {IERC721Metadata-name}."
      },
      "ownerOf(uint256)": {
        "details": "See {IERC721-ownerOf}."
      },
      "safeTransferFrom(address,address,uint256)": {
        "details": "See {IERC721-safeTransferFrom}."
      },
      "safeTransferFrom(address,address,uint256,bytes)": {
        "details": "See {IERC721-safeTransferFrom}."
      },
      "setApprovalForAll(address,bool)": {
        "details": "See {IERC721-setApprovalForAll}."
      },
      "supportsInterface(bytes4)": {
        "details": "See {IERC165-supportsInterface}."
      },
      "symbol()": {
        "details": "See {IERC721Metadata-symbol}."
      },
      "tokenURI(uint256)": {
        "details": "See {IERC721Metadata-tokenURI}."
      },
      "transferFrom(address,address,uint256)": {
        "details": "See {IERC721-transferFrom}."
      }
    },
    "version": 1
  },
  "userdoc": {
    "kind": "user",
    "methods": {},
    "version": 1
  }
}